{"contracts/fase2/ICO.sol":{"ICO":{"abi":[{"inputs":[{"internalType":"address","name":"_tokenAddress","type":"address"},{"internalType":"uint256","name":"_tokenPrecio","type":"uint256"},{"internalType":"address payable","name":"_beneficiario","type":"address"}],"stateMutability":"nonpayable","type":"constructor"},{"anonymous":false,"inputs":[{"indexed":false,"internalType":"address","name":"comprador","type":"address"},{"indexed":false,"internalType":"uint256","name":"cantidad","type":"uint256"},{"indexed":false,"internalType":"uint256","name":"monto","type":"uint256"}],"name":"TokensComprados","type":"event"},{"inputs":[],"name":"beneficiario","outputs":[{"internalType":"address payable","name":"","type":"address"}],"stateMutability":"view","type":"function"},{"inputs":[],"name":"comprarTokens","outputs":[],"stateMutability":"payable","type":"function"},{"inputs":[],"name":"montoRecaudado","outputs":[{"internalType":"uint256","name":"","type":"uint256"}],"stateMutability":"view","type":"function"},{"inputs":[],"name":"retirarFondos","outputs":[],"stateMutability":"nonpayable","type":"function"},{"inputs":[],"name":"tokenAddress","outputs":[{"internalType":"address","name":"","type":"address"}],"stateMutability":"view","type":"function"},{"inputs":[],"name":"tokenPrecio","outputs":[{"internalType":"uint256","name":"","type":"uint256"}],"stateMutability":"view","type":"function"}],"evm":{"bytecode":{"linkReferences":{},"object":"608060405234801561001057600080fd5b5060405161068c38038061068c83398101604081905261002f91610066565b600080546001600160a01b039485166001600160a01b031991821617909155600192909255600280549190931691161790556100c0565b60008060006060848603121561007a578283fd5b8351610085816100a8565b60208501516040860151919450925061009d816100a8565b809150509250925092565b6001600160a01b03811681146100bd57600080fd5b50565b6105bd806100cf6000396000f3fe6080604052600436106100555760003560e01c80631538cdc61461005a57806343fd703f146100645780638af018801461008f578063915903ef146100a45780639d76ea58146100c6578063ea23a6c9146100db575b600080fd5b6100626100f0565b005b34801561007057600080fd5b506100796102b1565b60405161008691906103c4565b60405180910390f35b34801561009b57600080fd5b506100626102c0565b3480156100b057600080fd5b506100b9610346565b6040516100869190610511565b3480156100d257600080fd5b5061007961034c565b3480156100e757600080fd5b506100b961035b565b600034116101195760405162461bcd60e51b81526004016101109061045f565b60405180910390fd5b60015460009061013b9061013534670de0b6b3a7640000610361565b90610374565b6000546040516370a0823160e01b815291925082916001600160a01b03909116906370a08231906101709030906004016103c4565b60206040518083038186803b15801561018857600080fd5b505afa15801561019c573d6000803e3d6000fd5b505050506040513d601f19601f820116820180604052508101906101c091906103ac565b10156101de5760405162461bcd60e51b8152600401610110906104a3565b6003546101eb9034610380565b60035560005460405163a9059cbb60e01b81526001600160a01b039091169063a9059cbb9061022090339085906004016103d8565b602060405180830381600087803b15801561023a57600080fd5b505af115801561024e573d6000803e3d6000fd5b505050506040513d601f19601f82011682018060405250810190610272919061038c565b507f8704ac79e74bdb024149c028e4b314383a8fe0ff6fd31f4987435469a57402d03382346040516102a6939291906103f1565b60405180910390a150565b6002546001600160a01b031681565b6002546001600160a01b031633146102ea5760405162461bcd60e51b815260040161011090610412565b6000471161030a5760405162461bcd60e51b8152600401610110906104da565b6002546040516001600160a01b03909116904780156108fc02916000818181858888f19350505050158015610343573d6000803e3d6000fd5b50565b60015481565b6000546001600160a01b031681565b60035481565b600061036d8284610552565b9392505050565b600061036d8284610532565b600061036d828461051a565b60006020828403121561039d578081fd5b8151801515811461036d578182fd5b6000602082840312156103bd578081fd5b5051919050565b6001600160a01b0391909116815260200190565b6001600160a01b03929092168252602082015260400190565b6001600160a01b039390931683526020830191909152604082015260600190565b6020808252602d908201527f536f6c6f20656c2062656e65666963696172696f20707565646520726574697260408201526c6172206c6f7320666f6e646f7360981b606082015260800190565b60208082526024908201527f446562657320656e7669617220455448207061726120636f6d7072617220746f6040820152636b656e7360e01b606082015260800190565b6020808252601e908201527f466f6e646f7320696e737566696369656e74657320656e206c612049434f0000604082015260600190565b6020808252601a908201527f4e6f2068617920666f6e646f7320706172612072657469726172000000000000604082015260600190565b90815260200190565b6000821982111561052d5761052d610571565b500190565b60008261054d57634e487b7160e01b81526012600452602481fd5b500490565b600081600019048311821515161561056c5761056c610571565b500290565b634e487b7160e01b600052601160045260246000fdfea2646970667358221220f58ed23a924b054522958a09020d3e5f31a8e4cc3c1aebae0f3b4b91c6706a1064736f6c63430008010033","opcodes":"PUSH1 0x80 PUSH1 0x40 MSTORE CALLVALUE DUP1 ISZERO PUSH2 0x10 JUMPI PUSH1 0x0 DUP1 REVERT JUMPDEST POP PUSH1 0x40 MLOAD PUSH2 0x68C CODESIZE SUB DUP1 PUSH2 0x68C DUP4 CODECOPY DUP2 ADD PUSH1 0x40 DUP2 SWAP1 MSTORE PUSH2 0x2F SWAP2 PUSH2 0x66 JUMP JUMPDEST PUSH1 0x0 DUP1 SLOAD PUSH1 0x1 PUSH1 0x1 PUSH1 0xA0 SHL SUB SWAP5 DUP6 AND PUSH1 0x1 PUSH1 0x1 PUSH1 0xA0 SHL SUB NOT SWAP2 DUP3 AND OR SWAP1 SWAP2 SSTORE PUSH1 0x1 SWAP3 SWAP1 SWAP3 SSTORE PUSH1 0x2 DUP1 SLOAD SWAP2 SWAP1 SWAP4 AND SWAP2 AND OR SWAP1 SSTORE PUSH2 0xC0 JUMP JUMPDEST PUSH1 0x0 DUP1 PUSH1 0x0 PUSH1 0x60 DUP5 DUP7 SUB SLT ISZERO PUSH2 0x7A JUMPI DUP3 DUP4 REVERT JUMPDEST DUP4 MLOAD PUSH2 0x85 DUP2 PUSH2 0xA8 JUMP JUMPDEST PUSH1 0x20 DUP6 ADD MLOAD PUSH1 0x40 DUP7 ADD MLOAD SWAP2 SWAP5 POP SWAP3 POP PUSH2 0x9D DUP2 PUSH2 0xA8 JUMP JUMPDEST DUP1 SWAP2 POP POP SWAP3 POP SWAP3 POP SWAP3 JUMP JUMPDEST PUSH1 0x1 PUSH1 0x1 PUSH1 0xA0 SHL SUB DUP2 AND DUP2 EQ PUSH2 0xBD JUMPI PUSH1 0x0 DUP1 REVERT JUMPDEST POP JUMP JUMPDEST PUSH2 0x5BD DUP1 PUSH2 0xCF PUSH1 0x0 CODECOPY PUSH1 0x0 RETURN INVALID PUSH1 0x80 PUSH1 0x40 MSTORE PUSH1 0x4 CALLDATASIZE LT PUSH2 0x55 JUMPI PUSH1 0x0 CALLDATALOAD PUSH1 0xE0 SHR DUP1 PUSH4 0x1538CDC6 EQ PUSH2 0x5A JUMPI DUP1 PUSH4 0x43FD703F EQ PUSH2 0x64 JUMPI DUP1 PUSH4 0x8AF01880 EQ PUSH2 0x8F JUMPI DUP1 PUSH4 0x915903EF EQ PUSH2 0xA4 JUMPI DUP1 PUSH4 0x9D76EA58 EQ PUSH2 0xC6 JUMPI DUP1 PUSH4 0xEA23A6C9 EQ PUSH2 0xDB JUMPI JUMPDEST PUSH1 0x0 DUP1 REVERT JUMPDEST PUSH2 0x62 PUSH2 0xF0 JUMP JUMPDEST STOP JUMPDEST CALLVALUE DUP1 ISZERO PUSH2 0x70 JUMPI PUSH1 0x0 DUP1 REVERT JUMPDEST POP PUSH2 0x79 PUSH2 0x2B1 JUMP JUMPDEST PUSH1 0x40 MLOAD PUSH2 0x86 SWAP2 SWAP1 PUSH2 0x3C4 JUMP JUMPDEST PUSH1 0x40 MLOAD DUP1 SWAP2 SUB SWAP1 RETURN JUMPDEST CALLVALUE DUP1 ISZERO PUSH2 0x9B JUMPI PUSH1 0x0 DUP1 REVERT JUMPDEST POP PUSH2 0x62 PUSH2 0x2C0 JUMP JUMPDEST CALLVALUE DUP1 ISZERO PUSH2 0xB0 JUMPI PUSH1 0x0 DUP1 REVERT JUMPDEST POP PUSH2 0xB9 PUSH2 0x346 JUMP JUMPDEST PUSH1 0x40 MLOAD PUSH2 0x86 SWAP2 SWAP1 PUSH2 0x511 JUMP JUMPDEST CALLVALUE DUP1 ISZERO PUSH2 0xD2 JUMPI PUSH1 0x0 DUP1 REVERT JUMPDEST POP PUSH2 0x79 PUSH2 0x34C JUMP JUMPDEST CALLVALUE DUP1 ISZERO PUSH2 0xE7 JUMPI PUSH1 0x0 DUP1 REVERT JUMPDEST POP PUSH2 0xB9 PUSH2 0x35B JUMP JUMPDEST PUSH1 0x0 CALLVALUE GT PUSH2 0x119 JUMPI PUSH1 0x40 MLOAD PUSH3 0x461BCD PUSH1 0xE5 SHL DUP2 MSTORE PUSH1 0x4 ADD PUSH2 0x110 SWAP1 PUSH2 0x45F JUMP JUMPDEST PUSH1 0x40 MLOAD DUP1 SWAP2 SUB SWAP1 REVERT JUMPDEST PUSH1 0x1 SLOAD PUSH1 0x0 SWAP1 PUSH2 0x13B SWAP1 PUSH2 0x135 CALLVALUE PUSH8 0xDE0B6B3A7640000 PUSH2 0x361 JUMP JUMPDEST SWAP1 PUSH2 0x374 JUMP JUMPDEST PUSH1 0x0 SLOAD PUSH1 0x40 MLOAD PUSH4 0x70A08231 PUSH1 0xE0 SHL DUP2 MSTORE SWAP2 SWAP3 POP DUP3 SWAP2 PUSH1 0x1 PUSH1 0x1 PUSH1 0xA0 SHL SUB SWAP1 SWAP2 AND SWAP1 PUSH4 0x70A08231 SWAP1 PUSH2 0x170 SWAP1 ADDRESS SWAP1 PUSH1 0x4 ADD PUSH2 0x3C4 JUMP JUMPDEST PUSH1 0x20 PUSH1 0x40 MLOAD DUP1 DUP4 SUB DUP2 DUP7 DUP1 EXTCODESIZE ISZERO DUP1 ISZERO PUSH2 0x188 JUMPI PUSH1 0x0 DUP1 REVERT JUMPDEST POP GAS STATICCALL ISZERO DUP1 ISZERO PUSH2 0x19C JUMPI RETURNDATASIZE PUSH1 0x0 DUP1 RETURNDATACOPY RETURNDATASIZE PUSH1 0x0 REVERT JUMPDEST POP POP POP POP PUSH1 0x40 MLOAD RETURNDATASIZE PUSH1 0x1F NOT PUSH1 0x1F DUP3 ADD AND DUP3 ADD DUP1 PUSH1 0x40 MSTORE POP DUP2 ADD SWAP1 PUSH2 0x1C0 SWAP2 SWAP1 PUSH2 0x3AC JUMP JUMPDEST LT ISZERO PUSH2 0x1DE JUMPI PUSH1 0x40 MLOAD PUSH3 0x461BCD PUSH1 0xE5 SHL DUP2 MSTORE PUSH1 0x4 ADD PUSH2 0x110 SWAP1 PUSH2 0x4A3 JUMP JUMPDEST PUSH1 0x3 SLOAD PUSH2 0x1EB SWAP1 CALLVALUE PUSH2 0x380 JUMP JUMPDEST PUSH1 0x3 SSTORE PUSH1 0x0 SLOAD PUSH1 0x40 MLOAD PUSH4 0xA9059CBB PUSH1 0xE0 SHL DUP2 MSTORE PUSH1 0x1 PUSH1 0x1 PUSH1 0xA0 SHL SUB SWAP1 SWAP2 AND SWAP1 PUSH4 0xA9059CBB SWAP1 PUSH2 0x220 SWAP1 CALLER SWAP1 DUP6 SWAP1 PUSH1 0x4 ADD PUSH2 0x3D8 JUMP JUMPDEST PUSH1 0x20 PUSH1 0x40 MLOAD DUP1 DUP4 SUB DUP2 PUSH1 0x0 DUP8 DUP1 EXTCODESIZE ISZERO DUP1 ISZERO PUSH2 0x23A JUMPI PUSH1 0x0 DUP1 REVERT JUMPDEST POP GAS CALL ISZERO DUP1 ISZERO PUSH2 0x24E JUMPI RETURNDATASIZE PUSH1 0x0 DUP1 RETURNDATACOPY RETURNDATASIZE PUSH1 0x0 REVERT JUMPDEST POP POP POP POP PUSH1 0x40 MLOAD RETURNDATASIZE PUSH1 0x1F NOT PUSH1 0x1F DUP3 ADD AND DUP3 ADD DUP1 PUSH1 0x40 MSTORE POP DUP2 ADD SWAP1 PUSH2 0x272 SWAP2 SWAP1 PUSH2 0x38C JUMP JUMPDEST POP PUSH32 0x8704AC79E74BDB024149C028E4B314383A8FE0FF6FD31F4987435469A57402D0 CALLER DUP3 CALLVALUE PUSH1 0x40 MLOAD PUSH2 0x2A6 SWAP4 SWAP3 SWAP2 SWAP1 PUSH2 0x3F1 JUMP JUMPDEST PUSH1 0x40 MLOAD DUP1 SWAP2 SUB SWAP1 LOG1 POP JUMP JUMPDEST PUSH1 0x2 SLOAD PUSH1 0x1 PUSH1 0x1 PUSH1 0xA0 SHL SUB AND DUP2 JUMP JUMPDEST PUSH1 0x2 SLOAD PUSH1 0x1 PUSH1 0x1 PUSH1 0xA0 SHL SUB AND CALLER EQ PUSH2 0x2EA JUMPI PUSH1 0x40 MLOAD PUSH3 0x461BCD PUSH1 0xE5 SHL DUP2 MSTORE PUSH1 0x4 ADD PUSH2 0x110 SWAP1 PUSH2 0x412 JUMP JUMPDEST PUSH1 0x0 SELFBALANCE GT PUSH2 0x30A JUMPI PUSH1 0x40 MLOAD PUSH3 0x461BCD PUSH1 0xE5 SHL DUP2 MSTORE PUSH1 0x4 ADD PUSH2 0x110 SWAP1 PUSH2 0x4DA JUMP JUMPDEST PUSH1 0x2 SLOAD PUSH1 0x40 MLOAD PUSH1 0x1 PUSH1 0x1 PUSH1 0xA0 SHL SUB SWAP1 SWAP2 AND SWAP1 SELFBALANCE DUP1 ISZERO PUSH2 0x8FC MUL SWAP2 PUSH1 0x0 DUP2 DUP2 DUP2 DUP6 DUP9 DUP9 CALL SWAP4 POP POP POP POP ISZERO DUP1 ISZERO PUSH2 0x343 JUMPI RETURNDATASIZE PUSH1 0x0 DUP1 RETURNDATACOPY RETURNDATASIZE PUSH1 0x0 REVERT JUMPDEST POP JUMP JUMPDEST PUSH1 0x1 SLOAD DUP2 JUMP JUMPDEST PUSH1 0x0 SLOAD PUSH1 0x1 PUSH1 0x1 PUSH1 0xA0 SHL SUB AND DUP2 JUMP JUMPDEST PUSH1 0x3 SLOAD DUP2 JUMP JUMPDEST PUSH1 0x0 PUSH2 0x36D DUP3 DUP5 PUSH2 0x552 JUMP JUMPDEST SWAP4 SWAP3 POP POP POP JUMP JUMPDEST PUSH1 0x0 PUSH2 0x36D DUP3 DUP5 PUSH2 0x532 JUMP JUMPDEST PUSH1 0x0 PUSH2 0x36D DUP3 DUP5 PUSH2 0x51A JUMP JUMPDEST PUSH1 0x0 PUSH1 0x20 DUP3 DUP5 SUB SLT ISZERO PUSH2 0x39D JUMPI DUP1 DUP2 REVERT JUMPDEST DUP2 MLOAD DUP1 ISZERO ISZERO DUP2 EQ PUSH2 0x36D JUMPI DUP2 DUP3 REVERT JUMPDEST PUSH1 0x0 PUSH1 0x20 DUP3 DUP5 SUB SLT ISZERO PUSH2 0x3BD JUMPI DUP1 DUP2 REVERT JUMPDEST POP MLOAD SWAP2 SWAP1 POP JUMP JUMPDEST PUSH1 0x1 PUSH1 0x1 PUSH1 0xA0 SHL SUB SWAP2 SWAP1 SWAP2 AND DUP2 MSTORE PUSH1 0x20 ADD SWAP1 JUMP JUMPDEST PUSH1 0x1 PUSH1 0x1 PUSH1 0xA0 SHL SUB SWAP3 SWAP1 SWAP3 AND DUP3 MSTORE PUSH1 0x20 DUP3 ADD MSTORE PUSH1 0x40 ADD SWAP1 JUMP JUMPDEST PUSH1 0x1 PUSH1 0x1 PUSH1 0xA0 SHL SUB SWAP4 SWAP1 SWAP4 AND DUP4 MSTORE PUSH1 0x20 DUP4 ADD SWAP2 SWAP1 SWAP2 MSTORE PUSH1 0x40 DUP3 ADD MSTORE PUSH1 0x60 ADD SWAP1 JUMP JUMPDEST PUSH1 0x20 DUP1 DUP3 MSTORE PUSH1 0x2D SWAP1 DUP3 ADD MSTORE PUSH32 0x536F6C6F20656C2062656E65666963696172696F207075656465207265746972 PUSH1 0x40 DUP3 ADD MSTORE PUSH13 0x6172206C6F7320666F6E646F73 PUSH1 0x98 SHL PUSH1 0x60 DUP3 ADD MSTORE PUSH1 0x80 ADD SWAP1 JUMP JUMPDEST PUSH1 0x20 DUP1 DUP3 MSTORE PUSH1 0x24 SWAP1 DUP3 ADD MSTORE PUSH32 0x446562657320656E7669617220455448207061726120636F6D7072617220746F PUSH1 0x40 DUP3 ADD MSTORE PUSH4 0x6B656E73 PUSH1 0xE0 SHL PUSH1 0x60 DUP3 ADD MSTORE PUSH1 0x80 ADD SWAP1 JUMP JUMPDEST PUSH1 0x20 DUP1 DUP3 MSTORE PUSH1 0x1E SWAP1 DUP3 ADD MSTORE PUSH32 0x466F6E646F7320696E737566696369656E74657320656E206C612049434F0000 PUSH1 0x40 DUP3 ADD MSTORE PUSH1 0x60 ADD SWAP1 JUMP JUMPDEST PUSH1 0x20 DUP1 DUP3 MSTORE PUSH1 0x1A SWAP1 DUP3 ADD MSTORE PUSH32 0x4E6F2068617920666F6E646F7320706172612072657469726172000000000000 PUSH1 0x40 DUP3 ADD MSTORE PUSH1 0x60 ADD SWAP1 JUMP JUMPDEST SWAP1 DUP2 MSTORE PUSH1 0x20 ADD SWAP1 JUMP JUMPDEST PUSH1 0x0 DUP3 NOT DUP3 GT ISZERO PUSH2 0x52D JUMPI PUSH2 0x52D PUSH2 0x571 JUMP JUMPDEST POP ADD SWAP1 JUMP JUMPDEST PUSH1 0x0 DUP3 PUSH2 0x54D JUMPI PUSH4 0x4E487B71 PUSH1 0xE0 SHL DUP2 MSTORE PUSH1 0x12 PUSH1 0x4 MSTORE PUSH1 0x24 DUP2 REVERT JUMPDEST POP DIV SWAP1 JUMP JUMPDEST PUSH1 0x0 DUP2 PUSH1 0x0 NOT DIV DUP4 GT DUP3 ISZERO ISZERO AND ISZERO PUSH2 0x56C JUMPI PUSH2 0x56C PUSH2 0x571 JUMP JUMPDEST POP MUL SWAP1 JUMP JUMPDEST PUSH4 0x4E487B71 PUSH1 0xE0 SHL PUSH1 0x0 MSTORE PUSH1 0x11 PUSH1 0x4 MSTORE PUSH1 0x24 PUSH1 0x0 REVERT INVALID LOG2 PUSH5 0x6970667358 0x22 SLT KECCAK256 CREATE2 DUP15 0xD2 GASPRICE SWAP3 0x4B SDIV GASLIMIT 0x22 SWAP6 DUP11 MULMOD MUL 0xD RETURNDATACOPY 0x5F BALANCE 0xA8 0xE4 0xCC EXTCODECOPY BYTE 0xEB 0xAE 0xF EXTCODESIZE 0x4B SWAP2 0xC6 PUSH17 0x6A1064736F6C6343000801003300000000 "},"methodIdentifiers":{"beneficiario()":"43fd703f","comprarTokens()":"1538cdc6","montoRecaudado()":"ea23a6c9","retirarFondos()":"8af01880","tokenAddress()":"9d76ea58","tokenPrecio()":"915903ef"}}}}}