{
  "_format": "hh-sol-artifact-1",
  "contractName": "ICO",
  "sourceName": "contracts/fase2/ICO.sol",
  "abi": [
    {
      "inputs": [
        {
          "internalType": "address",
          "name": "_tokenAddress",
          "type": "address"
        },
        {
          "internalType": "uint256",
          "name": "_tokenPrecio",
          "type": "uint256"
        },
        {
          "internalType": "address payable",
          "name": "_beneficiario",
          "type": "address"
        }
      ],
      "stateMutability": "nonpayable",
      "type": "constructor"
    },
    {
      "anonymous": false,
      "inputs": [
        {
          "indexed": false,
          "internalType": "address",
          "name": "comprador",
          "type": "address"
        },
        {
          "indexed": false,
          "internalType": "uint256",
          "name": "cantidad",
          "type": "uint256"
        },
        {
          "indexed": false,
          "internalType": "uint256",
          "name": "monto",
          "type": "uint256"
        }
      ],
      "name": "TokensComprados",
      "type": "event"
    },
    {
      "inputs": [],
      "name": "beneficiario",
      "outputs": [
        {
          "internalType": "address payable",
          "name": "",
          "type": "address"
        }
      ],
      "stateMutability": "view",
      "type": "function"
    },
    {
      "inputs": [],
      "name": "comprarTokens",
      "outputs": [],
      "stateMutability": "payable",
      "type": "function"
    },
    {
      "inputs": [],
      "name": "montoRecaudado",
      "outputs": [
        {
          "internalType": "uint256",
          "name": "",
          "type": "uint256"
        }
      ],
      "stateMutability": "view",
      "type": "function"
    },
    {
      "inputs": [],
      "name": "retirarFondos",
      "outputs": [],
      "stateMutability": "nonpayable",
      "type": "function"
    },
    {
      "inputs": [],
      "name": "tokenAddress",
      "outputs": [
        {
          "internalType": "address",
          "name": "",
          "type": "address"
        }
      ],
      "stateMutability": "view",
      "type": "function"
    },
    {
      "inputs": [],
      "name": "tokenPrecio",
      "outputs": [
        {
          "internalType": "uint256",
          "name": "",
          "type": "uint256"
        }
      ],
      "stateMutability": "view",
      "type": "function"
    }
  ],
  "bytecode": "0x60806040523480156200001157600080fd5b5060405162000c9c38038062000c9c8339818101604052810190620000379190620001b2565b826000806101000a81548173ffffffffffffffffffffffffffffffffffffffff021916908373ffffffffffffffffffffffffffffffffffffffff1602179055508160018190555080600260006101000a81548173ffffffffffffffffffffffffffffffffffffffff021916908373ffffffffffffffffffffffffffffffffffffffff1602179055505050506200020e565b600080fd5b600073ffffffffffffffffffffffffffffffffffffffff82169050919050565b6000620000fa82620000cd565b9050919050565b6200010c81620000ed565b81146200011857600080fd5b50565b6000815190506200012c8162000101565b92915050565b6000819050919050565b620001478162000132565b81146200015357600080fd5b50565b60008151905062000167816200013c565b92915050565b60006200017a82620000cd565b9050919050565b6200018c816200016d565b81146200019857600080fd5b50565b600081519050620001ac8162000181565b92915050565b600080600060608486031215620001ce57620001cd620000c8565b5b6000620001de868287016200011b565b9350506020620001f18682870162000156565b925050604062000204868287016200019b565b9150509250925092565b610a7e806200021e6000396000f3fe6080604052600436106100555760003560e01c80631538cdc61461005a57806343fd703f146100645780638af018801461008f578063915903ef146100a65780639d76ea58146100d1578063ea23a6c9146100fc575b600080fd5b610062610127565b005b34801561007057600080fd5b50610079610371565b6040516100869190610588565b60405180910390f35b34801561009b57600080fd5b506100a4610397565b005b3480156100b257600080fd5b506100bb6104d5565b6040516100c891906105bc565b60405180910390f35b3480156100dd57600080fd5b506100e66104db565b6040516100f391906105f8565b60405180910390f35b34801561010857600080fd5b506101116104ff565b60405161011e91906105bc565b60405180910390f35b6000341161016a576040517f08c379a000000000000000000000000000000000000000000000000000000000815260040161016190610696565b60405180910390fd5b600061019b60015461018d670de0b6b3a76400003461050590919063ffffffff16565b61051b90919063ffffffff16565b90508060008054906101000a900473ffffffffffffffffffffffffffffffffffffffff1673ffffffffffffffffffffffffffffffffffffffff166370a08231306040518263ffffffff1660e01b81526004016101f791906105f8565b602060405180830381865afa158015610214573d6000803e3d6000fd5b505050506040513d601f19601f8201168201806040525081019061023891906106e7565b1015610279576040517f08c379a000000000000000000000000000000000000000000000000000000000815260040161027090610760565b60405180910390fd5b61028e3460035461053190919063ffffffff16565b60038190555060008054906101000a900473ffffffffffffffffffffffffffffffffffffffff1673ffffffffffffffffffffffffffffffffffffffff1663a9059cbb33836040518363ffffffff1660e01b81526004016102ef929190610780565b6020604051808303816000875af115801561030e573d6000803e3d6000fd5b505050506040513d601f19601f8201168201806040525081019061033291906107e1565b507f8704ac79e74bdb024149c028e4b314383a8fe0ff6fd31f4987435469a57402d03382346040516103669392919061080e565b60405180910390a150565b600260009054906101000a900473ffffffffffffffffffffffffffffffffffffffff1681565b600260009054906101000a900473ffffffffffffffffffffffffffffffffffffffff1673ffffffffffffffffffffffffffffffffffffffff163373ffffffffffffffffffffffffffffffffffffffff1614610427576040517f08c379a000000000000000000000000000000000000000000000000000000000815260040161041e906108b7565b60405180910390fd5b6000471161046a576040517f08c379a000000000000000000000000000000000000000000000000000000000815260040161046190610923565b60405180910390fd5b600260009054906101000a900473ffffffffffffffffffffffffffffffffffffffff1673ffffffffffffffffffffffffffffffffffffffff166108fc479081150290604051600060405180830381858888f193505050501580156104d2573d6000803e3d6000fd5b50565b60015481565b60008054906101000a900473ffffffffffffffffffffffffffffffffffffffff1681565b60035481565b600081836105139190610972565b905092915050565b6000818361052991906109e3565b905092915050565b6000818361053f9190610a14565b905092915050565b600073ffffffffffffffffffffffffffffffffffffffff82169050919050565b600061057282610547565b9050919050565b61058281610567565b82525050565b600060208201905061059d6000830184610579565b92915050565b6000819050919050565b6105b6816105a3565b82525050565b60006020820190506105d160008301846105ad565b92915050565b60006105e282610547565b9050919050565b6105f2816105d7565b82525050565b600060208201905061060d60008301846105e9565b92915050565b600082825260208201905092915050565b7f446562657320656e7669617220455448207061726120636f6d7072617220746f60008201527f6b656e7300000000000000000000000000000000000000000000000000000000602082015250565b6000610680602483610613565b915061068b82610624565b604082019050919050565b600060208201905081810360008301526106af81610673565b9050919050565b600080fd5b6106c4816105a3565b81146106cf57600080fd5b50565b6000815190506106e1816106bb565b92915050565b6000602082840312156106fd576106fc6106b6565b5b600061070b848285016106d2565b91505092915050565b7f466f6e646f7320696e737566696369656e74657320656e206c612049434f0000600082015250565b600061074a601e83610613565b915061075582610714565b602082019050919050565b600060208201905081810360008301526107798161073d565b9050919050565b600060408201905061079560008301856105e9565b6107a260208301846105ad565b9392505050565b60008115159050919050565b6107be816107a9565b81146107c957600080fd5b50565b6000815190506107db816107b5565b92915050565b6000602082840312156107f7576107f66106b6565b5b6000610805848285016107cc565b91505092915050565b600060608201905061082360008301866105e9565b61083060208301856105ad565b61083d60408301846105ad565b949350505050565b7f536f6c6f20656c2062656e65666963696172696f20707565646520726574697260008201527f6172206c6f7320666f6e646f7300000000000000000000000000000000000000602082015250565b60006108a1602d83610613565b91506108ac82610845565b604082019050919050565b600060208201905081810360008301526108d081610894565b9050919050565b7f4e6f2068617920666f6e646f7320706172612072657469726172000000000000600082015250565b600061090d601a83610613565b9150610918826108d7565b602082019050919050565b6000602082019050818103600083015261093c81610900565b9050919050565b7f4e487b7100000000000000000000000000000000000000000000000000000000600052601160045260246000fd5b600061097d826105a3565b9150610988836105a3565b9250828202610996816105a3565b915082820484148315176109ad576109ac610943565b5b5092915050565b7f4e487b7100000000000000000000000000000000000000000000000000000000600052601260045260246000fd5b60006109ee826105a3565b91506109f9836105a3565b925082610a0957610a086109b4565b5b828204905092915050565b6000610a1f826105a3565b9150610a2a836105a3565b9250828201905080821115610a4257610a41610943565b5b9291505056fea2646970667358221220de7f79e9e3519138eba1102e4113c8fbf055b71b21da3c87c93055937d806fe764736f6c63430008180033",
  "linkReferences": {},
  "deployedLinkReferences": {}
}