{
  "_format": "hh-sol-artifact-1",
  "contractName": "PlataformaColeccionables",
  "sourceName": "contracts/fase4/PlataformaColeccionables.sol",
  "abi": [
    {
      "inputs": [
        {
          "internalType": "address",
          "name": "_tokenERC20",
          "type": "address"
        },
        {
          "internalType": "address",
          "name": "_coleccionablesERC721",
          "type": "address"
        },
        {
          "internalType": "address",
          "name": "_coleccionablesERC1155",
          "type": "address"
        }
      ],
      "stateMutability": "nonpayable",
      "type": "constructor"
    },
    {
      "anonymous": false,
      "inputs": [
        {
          "indexed": false,
          "internalType": "address",
          "name": "comprador",
          "type": "address"
        },
        {
          "indexed": false,
          "internalType": "uint256",
          "name": "tokenId",
          "type": "uint256"
        },
        {
          "indexed": false,
          "internalType": "uint256",
          "name": "amount",
          "type": "uint256"
        },
        {
          "indexed": false,
          "internalType": "uint256",
          "name": "precio",
          "type": "uint256"
        }
      ],
      "name": "ColeccionableComprado",
      "type": "event"
    },
    {
      "anonymous": false,
      "inputs": [
        {
          "indexed": true,
          "internalType": "address",
          "name": "previousOwner",
          "type": "address"
        },
        {
          "indexed": true,
          "internalType": "address",
          "name": "newOwner",
          "type": "address"
        }
      ],
      "name": "OwnershipTransferred",
      "type": "event"
    },
    {
      "inputs": [],
      "name": "coleccionablesERC1155",
      "outputs": [
        {
          "internalType": "contract IERC1155",
          "name": "",
          "type": "address"
        }
      ],
      "stateMutability": "view",
      "type": "function"
    },
    {
      "inputs": [],
      "name": "coleccionablesERC721",
      "outputs": [
        {
          "internalType": "contract IERC721",
          "name": "",
          "type": "address"
        }
      ],
      "stateMutability": "view",
      "type": "function"
    },
    {
      "inputs": [
        {
          "internalType": "uint256",
          "name": "_id",
          "type": "uint256"
        },
        {
          "internalType": "uint256",
          "name": "_amount",
          "type": "uint256"
        },
        {
          "internalType": "uint256",
          "name": "_precio",
          "type": "uint256"
        }
      ],
      "name": "comprarColeccionableERC1155",
      "outputs": [],
      "stateMutability": "nonpayable",
      "type": "function"
    },
    {
      "inputs": [
        {
          "internalType": "uint256",
          "name": "_tokenId",
          "type": "uint256"
        },
        {
          "internalType": "uint256",
          "name": "_precio",
          "type": "uint256"
        }
      ],
      "name": "comprarColeccionableERC721",
      "outputs": [],
      "stateMutability": "nonpayable",
      "type": "function"
    },
    {
      "inputs": [],
      "name": "owner",
      "outputs": [
        {
          "internalType": "address",
          "name": "",
          "type": "address"
        }
      ],
      "stateMutability": "view",
      "type": "function"
    },
    {
      "inputs": [],
      "name": "renounceOwnership",
      "outputs": [],
      "stateMutability": "nonpayable",
      "type": "function"
    },
    {
      "inputs": [],
      "name": "tokenERC20",
      "outputs": [
        {
          "internalType": "contract IERC20",
          "name": "",
          "type": "address"
        }
      ],
      "stateMutability": "view",
      "type": "function"
    },
    {
      "inputs": [
        {
          "internalType": "address",
          "name": "newOwner",
          "type": "address"
        }
      ],
      "name": "transferOwnership",
      "outputs": [],
      "stateMutability": "nonpayable",
      "type": "function"
    },
    {
      "inputs": [
        {
          "internalType": "address",
          "name": "_newOwner",
          "type": "address"
        }
      ],
      "name": "transferirPropiedad",
      "outputs": [],
      "stateMutability": "nonpayable",
      "type": "function"
    }
  ],
  "bytecode": "0x608060405234801561001057600080fd5b5060405161090c38038061090c83398101604081905261002f916100f1565b61003f61003a610081565b610085565b600180546001600160a01b039485166001600160a01b031991821617909155600280549385169382169390931790925560038054919093169116179055610133565b3390565b600080546001600160a01b038381166001600160a01b0319831681178455604051919092169283917f8be0079c531659141344cd1fd0a4f28419497f9722a3daafe3b4186f6b6457e09190a35050565b80516001600160a01b03811681146100ec57600080fd5b919050565b600080600060608486031215610105578283fd5b61010e846100d5565b925061011c602085016100d5565b915061012a604085016100d5565b90509250925092565b6107ca806101426000396000f3fe608060405234801561001057600080fd5b50600436106100925760003560e01c80639d143e8e116100665780639d143e8e146100da5780639e42a1df146100e2578063a138bc20146100ea578063a27ca5bf146100fd578063f2fde38b1461011057610092565b80629a458a14610097578063407cff13146100ac578063715018a6146100ca5780638da5cb5b146100d2575b600080fd5b6100aa6100a5366004610586565b610123565b005b6100b461019d565b6040516100c19190610620565b60405180910390f35b6100aa6101ac565b6100b46101f7565b6100b4610206565b6100b4610215565b6100aa6100f83660046105d4565b610224565b6100aa61010b3660046105f5565b610373565b6100aa61011e366004610586565b6104c4565b61012b610532565b6001600160a01b031661013c6101f7565b6001600160a01b03161461016b5760405162461bcd60e51b815260040161016290610733565b60405180910390fd5b6001600160a01b0381166101915760405162461bcd60e51b815260040161016290610768565b61019a816104c4565b50565b6003546001600160a01b031681565b6101b4610532565b6001600160a01b03166101c56101f7565b6001600160a01b0316146101eb5760405162461bcd60e51b815260040161016290610733565b6101f56000610536565b565b6000546001600160a01b031690565b6001546001600160a01b031681565b6002546001600160a01b031681565b600081116102445760405162461bcd60e51b8152600401610162906106b6565b6001546040516323b872dd60e01b81526001600160a01b03909116906323b872dd9061027890339030908690600401610634565b602060405180830381600087803b15801561029257600080fd5b505af11580156102a6573d6000803e3d6000fd5b505050506040513d601f19601f820116820180604052508101906102ca91906105b4565b50600254604051632142170760e11b81526001600160a01b03909116906342842e0e906102ff90309033908790600401610634565b600060405180830381600087803b15801561031957600080fd5b505af115801561032d573d6000803e3d6000fd5b505050507fb6e2934cbc96e6dd68562d5024b92dc0f1802910b16c4dcf99c3fee1c692b2b733836000846040516103679493929190610690565b60405180910390a15050565b600081116103935760405162461bcd60e51b8152600401610162906106b6565b6001546040516323b872dd60e01b81526001600160a01b03909116906323b872dd906103c790339030908690600401610634565b602060405180830381600087803b1580156103e157600080fd5b505af11580156103f5573d6000803e3d6000fd5b505050506040513d601f19601f8201168201806040525081019061041991906105b4565b50600354604051637921219560e11b81526001600160a01b039091169063f242432a90610450903090339088908890600401610658565b600060405180830381600087803b15801561046a57600080fd5b505af115801561047e573d6000803e3d6000fd5b505050507fb6e2934cbc96e6dd68562d5024b92dc0f1802910b16c4dcf99c3fee1c692b2b7338484846040516104b79493929190610690565b60405180910390a1505050565b6104cc610532565b6001600160a01b03166104dd6101f7565b6001600160a01b0316146105035760405162461bcd60e51b815260040161016290610733565b6001600160a01b0381166105295760405162461bcd60e51b8152600401610162906106ed565b61019a81610536565b3390565b600080546001600160a01b038381166001600160a01b0319831681178455604051919092169283917f8be0079c531659141344cd1fd0a4f28419497f9722a3daafe3b4186f6b6457e09190a35050565b600060208284031215610597578081fd5b81356001600160a01b03811681146105ad578182fd5b9392505050565b6000602082840312156105c5578081fd5b815180151581146105ad578182fd5b600080604083850312156105e6578081fd5b50508035926020909101359150565b600080600060608486031215610609578081fd5b505081359360208301359350604090920135919050565b6001600160a01b0391909116815260200190565b6001600160a01b039384168152919092166020820152604081019190915260600190565b6001600160a01b0394851681529290931660208301526040820152606081019190915260a06080820181905260009082015260c00190565b6001600160a01b0394909416845260208401929092526040830152606082015260800190565b6020808252601c908201527f50726563696f206465626520736572206d61796f722061206365726f00000000604082015260600190565b60208082526026908201527f4f776e61626c653a206e6577206f776e657220697320746865207a65726f206160408201526564647265737360d01b606082015260800190565b6020808252818101527f4f776e61626c653a2063616c6c6572206973206e6f7420746865206f776e6572604082015260600190565b602080825260129082015271446972656363694f6e20696e76616c69646160701b60408201526060019056fea2646970667358221220a922f6e27a82d7afc577e822ab7a29bdc15e349e1abfe47705b988797e5f083264736f6c63430008010033",
  "linkReferences": {},
  "deployedLinkReferences": {}
}