{
  "_format": "hh-sol-artifact-1",
  "contractName": "NFT1155",
  "sourceName": "contracts/fase3/NFT1155.sol",
  "abi": [
    {
      "inputs": [
        {
          "internalType": "string",
          "name": "_uri",
          "type": "string"
        }
      ],
      "stateMutability": "nonpayable",
      "type": "constructor"
    },
    {
      "anonymous": false,
      "inputs": [
        {
          "indexed": true,
          "internalType": "address",
          "name": "account",
          "type": "address"
        },
        {
          "indexed": true,
          "internalType": "address",
          "name": "operator",
          "type": "address"
        },
        {
          "indexed": false,
          "internalType": "bool",
          "name": "approved",
          "type": "bool"
        }
      ],
      "name": "ApprovalForAll",
      "type": "event"
    },
    {
      "anonymous": false,
      "inputs": [
        {
          "indexed": true,
          "internalType": "address",
          "name": "previousOwner",
          "type": "address"
        },
        {
          "indexed": true,
          "internalType": "address",
          "name": "newOwner",
          "type": "address"
        }
      ],
      "name": "OwnershipTransferred",
      "type": "event"
    },
    {
      "anonymous": false,
      "inputs": [
        {
          "indexed": true,
          "internalType": "address",
          "name": "operator",
          "type": "address"
        },
        {
          "indexed": true,
          "internalType": "address",
          "name": "from",
          "type": "address"
        },
        {
          "indexed": true,
          "internalType": "address",
          "name": "to",
          "type": "address"
        },
        {
          "indexed": false,
          "internalType": "uint256[]",
          "name": "ids",
          "type": "uint256[]"
        },
        {
          "indexed": false,
          "internalType": "uint256[]",
          "name": "values",
          "type": "uint256[]"
        }
      ],
      "name": "TransferBatch",
      "type": "event"
    },
    {
      "anonymous": false,
      "inputs": [
        {
          "indexed": true,
          "internalType": "address",
          "name": "operator",
          "type": "address"
        },
        {
          "indexed": true,
          "internalType": "address",
          "name": "from",
          "type": "address"
        },
        {
          "indexed": true,
          "internalType": "address",
          "name": "to",
          "type": "address"
        },
        {
          "indexed": false,
          "internalType": "uint256",
          "name": "id",
          "type": "uint256"
        },
        {
          "indexed": false,
          "internalType": "uint256",
          "name": "value",
          "type": "uint256"
        }
      ],
      "name": "TransferSingle",
      "type": "event"
    },
    {
      "anonymous": false,
      "inputs": [
        {
          "indexed": false,
          "internalType": "string",
          "name": "value",
          "type": "string"
        },
        {
          "indexed": true,
          "internalType": "uint256",
          "name": "id",
          "type": "uint256"
        }
      ],
      "name": "URI",
      "type": "event"
    },
    {
      "inputs": [
        {
          "internalType": "address",
          "name": "account",
          "type": "address"
        },
        {
          "internalType": "uint256",
          "name": "id",
          "type": "uint256"
        }
      ],
      "name": "balanceOf",
      "outputs": [
        {
          "internalType": "uint256",
          "name": "",
          "type": "uint256"
        }
      ],
      "stateMutability": "view",
      "type": "function"
    },
    {
      "inputs": [
        {
          "internalType": "address[]",
          "name": "accounts",
          "type": "address[]"
        },
        {
          "internalType": "uint256[]",
          "name": "ids",
          "type": "uint256[]"
        }
      ],
      "name": "balanceOfBatch",
      "outputs": [
        {
          "internalType": "uint256[]",
          "name": "",
          "type": "uint256[]"
        }
      ],
      "stateMutability": "view",
      "type": "function"
    },
    {
      "inputs": [
        {
          "internalType": "address",
          "name": "account",
          "type": "address"
        },
        {
          "internalType": "address",
          "name": "operator",
          "type": "address"
        }
      ],
      "name": "isApprovedForAll",
      "outputs": [
        {
          "internalType": "bool",
          "name": "",
          "type": "bool"
        }
      ],
      "stateMutability": "view",
      "type": "function"
    },
    {
      "inputs": [
        {
          "internalType": "address",
          "name": "_to",
          "type": "address"
        },
        {
          "internalType": "uint256",
          "name": "_id",
          "type": "uint256"
        },
        {
          "internalType": "uint256",
          "name": "_amount",
          "type": "uint256"
        },
        {
          "internalType": "bytes",
          "name": "_data",
          "type": "bytes"
        }
      ],
      "name": "mint",
      "outputs": [],
      "stateMutability": "nonpayable",
      "type": "function"
    },
    {
      "inputs": [
        {
          "internalType": "address",
          "name": "_to",
          "type": "address"
        },
        {
          "internalType": "uint256[]",
          "name": "_ids",
          "type": "uint256[]"
        },
        {
          "internalType": "uint256[]",
          "name": "_amounts",
          "type": "uint256[]"
        },
        {
          "internalType": "bytes",
          "name": "_data",
          "type": "bytes"
        }
      ],
      "name": "mintBatch",
      "outputs": [],
      "stateMutability": "nonpayable",
      "type": "function"
    },
    {
      "inputs": [],
      "name": "owner",
      "outputs": [
        {
          "internalType": "address",
          "name": "",
          "type": "address"
        }
      ],
      "stateMutability": "view",
      "type": "function"
    },
    {
      "inputs": [],
      "name": "renounceOwnership",
      "outputs": [],
      "stateMutability": "nonpayable",
      "type": "function"
    },
    {
      "inputs": [
        {
          "internalType": "address",
          "name": "from",
          "type": "address"
        },
        {
          "internalType": "address",
          "name": "to",
          "type": "address"
        },
        {
          "internalType": "uint256[]",
          "name": "ids",
          "type": "uint256[]"
        },
        {
          "internalType": "uint256[]",
          "name": "amounts",
          "type": "uint256[]"
        },
        {
          "internalType": "bytes",
          "name": "data",
          "type": "bytes"
        }
      ],
      "name": "safeBatchTransferFrom",
      "outputs": [],
      "stateMutability": "nonpayable",
      "type": "function"
    },
    {
      "inputs": [
        {
          "internalType": "address",
          "name": "from",
          "type": "address"
        },
        {
          "internalType": "address",
          "name": "to",
          "type": "address"
        },
        {
          "internalType": "uint256",
          "name": "id",
          "type": "uint256"
        },
        {
          "internalType": "uint256",
          "name": "amount",
          "type": "uint256"
        },
        {
          "internalType": "bytes",
          "name": "data",
          "type": "bytes"
        }
      ],
      "name": "safeTransferFrom",
      "outputs": [],
      "stateMutability": "nonpayable",
      "type": "function"
    },
    {
      "inputs": [
        {
          "internalType": "address",
          "name": "operator",
          "type": "address"
        },
        {
          "internalType": "bool",
          "name": "approved",
          "type": "bool"
        }
      ],
      "name": "setApprovalForAll",
      "outputs": [],
      "stateMutability": "nonpayable",
      "type": "function"
    },
    {
      "inputs": [
        {
          "internalType": "bytes4",
          "name": "interfaceId",
          "type": "bytes4"
        }
      ],
      "name": "supportsInterface",
      "outputs": [
        {
          "internalType": "bool",
          "name": "",
          "type": "bool"
        }
      ],
      "stateMutability": "view",
      "type": "function"
    },
    {
      "inputs": [
        {
          "internalType": "address",
          "name": "newOwner",
          "type": "address"
        }
      ],
      "name": "transferOwnership",
      "outputs": [],
      "stateMutability": "nonpayable",
      "type": "function"
    },
    {
      "inputs": [
        {
          "internalType": "uint256",
          "name": "",
          "type": "uint256"
        }
      ],
      "name": "uri",
      "outputs": [
        {
          "internalType": "string",
          "name": "",
          "type": "string"
        }
      ],
      "stateMutability": "view",
      "type": "function"
    }
  ],
  "bytecode": "0x60806040523480156200001157600080fd5b506040516200367f3803806200367f8339818101604052810190620000379190620002e7565b8062000049816200007160201b60201c565b506200006a6200005e6200008660201b60201c565b6200008e60201b60201c565b506200066a565b806002908162000082919062000583565b5050565b600033905090565b6000600360009054906101000a900473ffffffffffffffffffffffffffffffffffffffff16905081600360006101000a81548173ffffffffffffffffffffffffffffffffffffffff021916908373ffffffffffffffffffffffffffffffffffffffff1602179055508173ffffffffffffffffffffffffffffffffffffffff168173ffffffffffffffffffffffffffffffffffffffff167f8be0079c531659141344cd1fd0a4f28419497f9722a3daafe3b4186f6b6457e060405160405180910390a35050565b6000604051905090565b600080fd5b600080fd5b600080fd5b600080fd5b6000601f19601f8301169050919050565b7f4e487b7100000000000000000000000000000000000000000000000000000000600052604160045260246000fd5b620001bd8262000172565b810181811067ffffffffffffffff82111715620001df57620001de62000183565b5b80604052505050565b6000620001f462000154565b9050620002028282620001b2565b919050565b600067ffffffffffffffff82111562000225576200022462000183565b5b620002308262000172565b9050602081019050919050565b60005b838110156200025d57808201518184015260208101905062000240565b60008484015250505050565b6000620002806200027a8462000207565b620001e8565b9050828152602081018484840111156200029f576200029e6200016d565b5b620002ac8482856200023d565b509392505050565b600082601f830112620002cc57620002cb62000168565b5b8151620002de84826020860162000269565b91505092915050565b6000602082840312156200030057620002ff6200015e565b5b600082015167ffffffffffffffff81111562000321576200032062000163565b5b6200032f84828501620002b4565b91505092915050565b600081519050919050565b7f4e487b7100000000000000000000000000000000000000000000000000000000600052602260045260246000fd5b600060028204905060018216806200038b57607f821691505b602082108103620003a157620003a062000343565b5b50919050565b60008190508160005260206000209050919050565b60006020601f8301049050919050565b600082821b905092915050565b6000600883026200040b7fffffffffffffffffffffffffffffffffffffffffffffffffffffffffffffffff82620003cc565b620004178683620003cc565b95508019841693508086168417925050509392505050565b6000819050919050565b6000819050919050565b6000620004646200045e62000458846200042f565b62000439565b6200042f565b9050919050565b6000819050919050565b620004808362000443565b620004986200048f826200046b565b848454620003d9565b825550505050565b600090565b620004af620004a0565b620004bc81848462000475565b505050565b5b81811015620004e457620004d8600082620004a5565b600181019050620004c2565b5050565b601f8211156200053357620004fd81620003a7565b6200050884620003bc565b8101602085101562000518578190505b620005306200052785620003bc565b830182620004c1565b50505b505050565b600082821c905092915050565b6000620005586000198460080262000538565b1980831691505092915050565b600062000573838362000545565b9150826002028217905092915050565b6200058e8262000338565b67ffffffffffffffff811115620005aa57620005a962000183565b5b620005b6825462000372565b620005c3828285620004e8565b600060209050601f831160018114620005fb5760008415620005e6578287015190505b620005f2858262000565565b86555062000662565b601f1984166200060b86620003a7565b60005b8281101562000635578489015182556001820191506020850194506020810190506200060e565b8683101562000655578489015162000651601f89168262000545565b8355505b6001600288020188555050505b505050505050565b613005806200067a6000396000f3fe608060405234801561001057600080fd5b50600436106100ce5760003560e01c8063715018a61161008c578063a22cb46511610066578063a22cb4651461020f578063e985e9c51461022b578063f242432a1461025b578063f2fde38b14610277576100ce565b8063715018a6146101cb578063731133e9146101d55780638da5cb5b146101f1576100ce565b8062fdd58e146100d357806301ffc9a7146101035780630e89341c146101335780631f7fdffa146101635780632eb2c2d61461017f5780634e1273f41461019b575b600080fd5b6100ed60048036038101906100e89190611b5e565b610293565b6040516100fa9190611bad565b60405180910390f35b61011d60048036038101906101189190611c20565b61035b565b60405161012a9190611c68565b60405180910390f35b61014d60048036038101906101489190611c83565b61043d565b60405161015a9190611d40565b60405180910390f35b61017d60048036038101906101789190611f5f565b6104d1565b005b6101996004803603810190610194919061201a565b61055f565b005b6101b560048036038101906101b091906121ac565b610600565b6040516101c291906122e2565b60405180910390f35b6101d3610713565b005b6101ef60048036038101906101ea9190612304565b61079b565b005b6101f9610829565b6040516102069190612396565b60405180910390f35b610229600480360381019061022491906123dd565b610853565b005b6102456004803603810190610240919061241d565b610869565b6040516102529190611c68565b60405180910390f35b6102756004803603810190610270919061245d565b6108fd565b005b610291600480360381019061028c91906124f4565b61099e565b005b60008073ffffffffffffffffffffffffffffffffffffffff168373ffffffffffffffffffffffffffffffffffffffff1603610303576040517f08c379a00000000000000000000000000000000000000000000000000000000081526004016102fa90612593565b60405180910390fd5b60008083815260200190815260200160002060008473ffffffffffffffffffffffffffffffffffffffff1673ffffffffffffffffffffffffffffffffffffffff16815260200190815260200160002054905092915050565b60007fd9b67a26000000000000000000000000000000000000000000000000000000007bffffffffffffffffffffffffffffffffffffffffffffffffffffffff1916827bffffffffffffffffffffffffffffffffffffffffffffffffffffffff1916148061042657507f0e89341c000000000000000000000000000000000000000000000000000000007bffffffffffffffffffffffffffffffffffffffffffffffffffffffff1916827bffffffffffffffffffffffffffffffffffffffffffffffffffffffff1916145b80610436575061043582610a95565b5b9050919050565b60606002805461044c906125e2565b80601f0160208091040260200160405190810160405280929190818152602001828054610478906125e2565b80156104c55780601f1061049a576101008083540402835291602001916104c5565b820191906000526020600020905b8154815290600101906020018083116104a857829003601f168201915b50505050509050919050565b6104d9610aff565b73ffffffffffffffffffffffffffffffffffffffff166104f7610829565b73ffffffffffffffffffffffffffffffffffffffff161461054d576040517f08c379a00000000000000000000000000000000000000000000000000000000081526004016105449061265f565b60405180910390fd5b61055984848484610b07565b50505050565b610567610aff565b73ffffffffffffffffffffffffffffffffffffffff168573ffffffffffffffffffffffffffffffffffffffff1614806105ad57506105ac856105a7610aff565b610869565b5b6105ec576040517f08c379a00000000000000000000000000000000000000000000000000000000081526004016105e3906126f1565b60405180910390fd5b6105f98585858585610d1e565b5050505050565b60608151835114610646576040517f08c379a000000000000000000000000000000000000000000000000000000000815260040161063d90612783565b60405180910390fd5b6000835167ffffffffffffffff81111561066357610662611d67565b5b6040519080825280602002602001820160405280156106915781602001602082028036833780820191505090505b50905060005b8451811015610708576106de8582815181106106b6576106b56127a3565b5b60200260200101518583815181106106d1576106d06127a3565b5b6020026020010151610293565b8282815181106106f1576106f06127a3565b5b602002602001018181525050806001019050610697565b508091505092915050565b61071b610aff565b73ffffffffffffffffffffffffffffffffffffffff16610739610829565b73ffffffffffffffffffffffffffffffffffffffff161461078f576040517f08c379a00000000000000000000000000000000000000000000000000000000081526004016107869061265f565b60405180910390fd5b610799600061102b565b565b6107a3610aff565b73ffffffffffffffffffffffffffffffffffffffff166107c1610829565b73ffffffffffffffffffffffffffffffffffffffff1614610817576040517f08c379a000000000000000000000000000000000000000000000000000000000815260040161080e9061265f565b60405180910390fd5b610823848484846110f1565b50505050565b6000600360009054906101000a900473ffffffffffffffffffffffffffffffffffffffff16905090565b61086561085e610aff565b8383611286565b5050565b6000600160008473ffffffffffffffffffffffffffffffffffffffff1673ffffffffffffffffffffffffffffffffffffffff16815260200190815260200160002060008373ffffffffffffffffffffffffffffffffffffffff1673ffffffffffffffffffffffffffffffffffffffff16815260200190815260200160002060009054906101000a900460ff16905092915050565b610905610aff565b73ffffffffffffffffffffffffffffffffffffffff168573ffffffffffffffffffffffffffffffffffffffff16148061094b575061094a85610945610aff565b610869565b5b61098a576040517f08c379a000000000000000000000000000000000000000000000000000000000815260040161098190612844565b60405180910390fd5b61099785858585856113f2565b5050505050565b6109a6610aff565b73ffffffffffffffffffffffffffffffffffffffff166109c4610829565b73ffffffffffffffffffffffffffffffffffffffff1614610a1a576040517f08c379a0000000000000000000000000000000000000000000000000000000008152600401610a119061265f565b60405180910390fd5b600073ffffffffffffffffffffffffffffffffffffffff168173ffffffffffffffffffffffffffffffffffffffff1603610a89576040517f08c379a0000000000000000000000000000000000000000000000000000000008152600401610a80906128d6565b60405180910390fd5b610a928161102b565b50565b60007f01ffc9a7000000000000000000000000000000000000000000000000000000007bffffffffffffffffffffffffffffffffffffffffffffffffffffffff1916827bffffffffffffffffffffffffffffffffffffffffffffffffffffffff1916149050919050565b600033905090565b600073ffffffffffffffffffffffffffffffffffffffff168473ffffffffffffffffffffffffffffffffffffffff1603610b76576040517f08c379a0000000000000000000000000000000000000000000000000000000008152600401610b6d90612968565b60405180910390fd5b8151835114610bba576040517f08c379a0000000000000000000000000000000000000000000000000000000008152600401610bb1906129fa565b60405180910390fd5b6000610bc4610aff565b9050610bd581600087878787611673565b60005b8451811015610c8857838181518110610bf457610bf36127a3565b5b6020026020010151600080878481518110610c1257610c116127a3565b5b6020026020010151815260200190815260200160002060008873ffffffffffffffffffffffffffffffffffffffff1673ffffffffffffffffffffffffffffffffffffffff1681526020019081526020016000206000828254610c749190612a49565b925050819055508080600101915050610bd8565b508473ffffffffffffffffffffffffffffffffffffffff16600073ffffffffffffffffffffffffffffffffffffffff168273ffffffffffffffffffffffffffffffffffffffff167f4a39dc06d4c0dbc64b70af90fd698a233a518aa5d07e595d983b8c0526c8f7fb8787604051610d00929190612a7d565b60405180910390a4610d178160008787878761167b565b5050505050565b8151835114610d62576040517f08c379a0000000000000000000000000000000000000000000000000000000008152600401610d59906129fa565b60405180910390fd5b600073ffffffffffffffffffffffffffffffffffffffff168473ffffffffffffffffffffffffffffffffffffffff1603610dd1576040517f08c379a0000000000000000000000000000000000000000000000000000000008152600401610dc890612b26565b60405180910390fd5b6000610ddb610aff565b9050610deb818787878787611673565b60005b8451811015610f96576000858281518110610e0c57610e0b6127a3565b5b602002602001015190506000858381518110610e2b57610e2a6127a3565b5b60200260200101519050600080600084815260200190815260200160002060008b73ffffffffffffffffffffffffffffffffffffffff1673ffffffffffffffffffffffffffffffffffffffff16815260200190815260200160002054905081811015610ecc576040517f08c379a0000000000000000000000000000000000000000000000000000000008152600401610ec390612bb8565b60405180910390fd5b81810360008085815260200190815260200160002060008c73ffffffffffffffffffffffffffffffffffffffff1673ffffffffffffffffffffffffffffffffffffffff168152602001908152602001600020819055508160008085815260200190815260200160002060008b73ffffffffffffffffffffffffffffffffffffffff1673ffffffffffffffffffffffffffffffffffffffff1681526020019081526020016000206000828254610f819190612a49565b92505081905550505050806001019050610dee565b508473ffffffffffffffffffffffffffffffffffffffff168673ffffffffffffffffffffffffffffffffffffffff168273ffffffffffffffffffffffffffffffffffffffff167f4a39dc06d4c0dbc64b70af90fd698a233a518aa5d07e595d983b8c0526c8f7fb878760405161100d929190612a7d565b60405180910390a461102381878787878761167b565b505050505050565b6000600360009054906101000a900473ffffffffffffffffffffffffffffffffffffffff16905081600360006101000a81548173ffffffffffffffffffffffffffffffffffffffff021916908373ffffffffffffffffffffffffffffffffffffffff1602179055508173ffffffffffffffffffffffffffffffffffffffff168173ffffffffffffffffffffffffffffffffffffffff167f8be0079c531659141344cd1fd0a4f28419497f9722a3daafe3b4186f6b6457e060405160405180910390a35050565b600073ffffffffffffffffffffffffffffffffffffffff168473ffffffffffffffffffffffffffffffffffffffff1603611160576040517f08c379a000000000000000000000000000000000000000000000000000000000815260040161115790612968565b60405180910390fd5b600061116a610aff565b905061118b8160008761117c88611852565b61118588611852565b87611673565b8260008086815260200190815260200160002060008773ffffffffffffffffffffffffffffffffffffffff1673ffffffffffffffffffffffffffffffffffffffff16815260200190815260200160002060008282546111ea9190612a49565b925050819055508473ffffffffffffffffffffffffffffffffffffffff16600073ffffffffffffffffffffffffffffffffffffffff168273ffffffffffffffffffffffffffffffffffffffff167fc3d58168c5ae7397731d063d5bbf3d657854427343f4c083240f7aacaa2d0f628787604051611268929190612bd8565b60405180910390a461127f816000878787876118cc565b5050505050565b8173ffffffffffffffffffffffffffffffffffffffff168373ffffffffffffffffffffffffffffffffffffffff16036112f4576040517f08c379a00000000000000000000000000000000000000000000000000000000081526004016112eb90612c73565b60405180910390fd5b80600160008573ffffffffffffffffffffffffffffffffffffffff1673ffffffffffffffffffffffffffffffffffffffff16815260200190815260200160002060008473ffffffffffffffffffffffffffffffffffffffff1673ffffffffffffffffffffffffffffffffffffffff16815260200190815260200160002060006101000a81548160ff0219169083151502179055508173ffffffffffffffffffffffffffffffffffffffff168373ffffffffffffffffffffffffffffffffffffffff167f17307eab39ab6107e8899845ad3d59bd9653f200f220920489ca2b5937696c31836040516113e59190611c68565b60405180910390a3505050565b600073ffffffffffffffffffffffffffffffffffffffff168473ffffffffffffffffffffffffffffffffffffffff1603611461576040517f08c379a000000000000000000000000000000000000000000000000000000000815260040161145890612b26565b60405180910390fd5b600061146b610aff565b905061148b81878761147c88611852565b61148588611852565b87611673565b600080600086815260200190815260200160002060008873ffffffffffffffffffffffffffffffffffffffff1673ffffffffffffffffffffffffffffffffffffffff16815260200190815260200160002054905083811015611522576040517f08c379a000000000000000000000000000000000000000000000000000000000815260040161151990612bb8565b60405180910390fd5b83810360008087815260200190815260200160002060008973ffffffffffffffffffffffffffffffffffffffff1673ffffffffffffffffffffffffffffffffffffffff168152602001908152602001600020819055508360008087815260200190815260200160002060008873ffffffffffffffffffffffffffffffffffffffff1673ffffffffffffffffffffffffffffffffffffffff16815260200190815260200160002060008282546115d79190612a49565b925050819055508573ffffffffffffffffffffffffffffffffffffffff168773ffffffffffffffffffffffffffffffffffffffff168373ffffffffffffffffffffffffffffffffffffffff167fc3d58168c5ae7397731d063d5bbf3d657854427343f4c083240f7aacaa2d0f628888604051611654929190612bd8565b60405180910390a461166a8288888888886118cc565b50505050505050565b505050505050565b61169a8473ffffffffffffffffffffffffffffffffffffffff16611aa3565b1561184a578373ffffffffffffffffffffffffffffffffffffffff1663bc197c8187878686866040518663ffffffff1660e01b81526004016116e0959493929190612ce8565b6020604051808303816000875af192505050801561171c57506040513d601f19601f820116820180604052508101906117199190612d65565b60015b6117c157611728612d9f565b806308c379a003611784575061173c612dc1565b806117475750611786565b806040517f08c379a000000000000000000000000000000000000000000000000000000000815260040161177b9190611d40565b60405180910390fd5b505b6040517f08c379a00000000000000000000000000000000000000000000000000000000081526004016117b890612ec3565b60405180910390fd5b63bc197c8160e01b7bffffffffffffffffffffffffffffffffffffffffffffffffffffffff1916817bffffffffffffffffffffffffffffffffffffffffffffffffffffffff191614611848576040517f08c379a000000000000000000000000000000000000000000000000000000000815260040161183f90612f55565b60405180910390fd5b505b505050505050565b60606000600167ffffffffffffffff81111561187157611870611d67565b5b60405190808252806020026020018201604052801561189f5781602001602082028036833780820191505090505b50905082816000815181106118b7576118b66127a3565b5b60200260200101818152505080915050919050565b6118eb8473ffffffffffffffffffffffffffffffffffffffff16611aa3565b15611a9b578373ffffffffffffffffffffffffffffffffffffffff1663f23a6e6187878686866040518663ffffffff1660e01b8152600401611931959493929190612f75565b6020604051808303816000875af192505050801561196d57506040513d601f19601f8201168201806040525081019061196a9190612d65565b60015b611a1257611979612d9f565b806308c379a0036119d5575061198d612dc1565b8061199857506119d7565b806040517f08c379a00000000000000000000000000000000000000000000000000000000081526004016119cc9190611d40565b60405180910390fd5b505b6040517f08c379a0000000000000000000000000000000000000000000000000000000008152600401611a0990612ec3565b60405180910390fd5b63f23a6e6160e01b7bffffffffffffffffffffffffffffffffffffffffffffffffffffffff1916817bffffffffffffffffffffffffffffffffffffffffffffffffffffffff191614611a99576040517f08c379a0000000000000000000000000000000000000000000000000000000008152600401611a9090612f55565b60405180910390fd5b505b505050505050565b600080823b905060008111915050919050565b6000604051905090565b600080fd5b600080fd5b600073ffffffffffffffffffffffffffffffffffffffff82169050919050565b6000611af582611aca565b9050919050565b611b0581611aea565b8114611b1057600080fd5b50565b600081359050611b2281611afc565b92915050565b6000819050919050565b611b3b81611b28565b8114611b4657600080fd5b50565b600081359050611b5881611b32565b92915050565b60008060408385031215611b7557611b74611ac0565b5b6000611b8385828601611b13565b9250506020611b9485828601611b49565b9150509250929050565b611ba781611b28565b82525050565b6000602082019050611bc26000830184611b9e565b92915050565b60007fffffffff0000000000000000000000000000000000000000000000000000000082169050919050565b611bfd81611bc8565b8114611c0857600080fd5b50565b600081359050611c1a81611bf4565b92915050565b600060208284031215611c3657611c35611ac0565b5b6000611c4484828501611c0b565b91505092915050565b60008115159050919050565b611c6281611c4d565b82525050565b6000602082019050611c7d6000830184611c59565b92915050565b600060208284031215611c9957611c98611ac0565b5b6000611ca784828501611b49565b91505092915050565b600081519050919050565b600082825260208201905092915050565b60005b83811015611cea578082015181840152602081019050611ccf565b60008484015250505050565b6000601f19601f8301169050919050565b6000611d1282611cb0565b611d1c8185611cbb565b9350611d2c818560208601611ccc565b611d3581611cf6565b840191505092915050565b60006020820190508181036000830152611d5a8184611d07565b905092915050565b600080fd5b7f4e487b7100000000000000000000000000000000000000000000000000000000600052604160045260246000fd5b611d9f82611cf6565b810181811067ffffffffffffffff82111715611dbe57611dbd611d67565b5b80604052505050565b6000611dd1611ab6565b9050611ddd8282611d96565b919050565b600067ffffffffffffffff821115611dfd57611dfc611d67565b5b602082029050602081019050919050565b600080fd5b6000611e26611e2184611de2565b611dc7565b90508083825260208201905060208402830185811115611e4957611e48611e0e565b5b835b81811015611e725780611e5e8882611b49565b845260208401935050602081019050611e4b565b5050509392505050565b600082601f830112611e9157611e90611d62565b5b8135611ea1848260208601611e13565b91505092915050565b600080fd5b600067ffffffffffffffff821115611eca57611ec9611d67565b5b611ed382611cf6565b9050602081019050919050565b82818337600083830152505050565b6000611f02611efd84611eaf565b611dc7565b905082815260208101848484011115611f1e57611f1d611eaa565b5b611f29848285611ee0565b509392505050565b600082601f830112611f4657611f45611d62565b5b8135611f56848260208601611eef565b91505092915050565b60008060008060808587031215611f7957611f78611ac0565b5b6000611f8787828801611b13565b945050602085013567ffffffffffffffff811115611fa857611fa7611ac5565b5b611fb487828801611e7c565b935050604085013567ffffffffffffffff811115611fd557611fd4611ac5565b5b611fe187828801611e7c565b925050606085013567ffffffffffffffff81111561200257612001611ac5565b5b61200e87828801611f31565b91505092959194509250565b600080600080600060a0868803121561203657612035611ac0565b5b600061204488828901611b13565b955050602061205588828901611b13565b945050604086013567ffffffffffffffff81111561207657612075611ac5565b5b61208288828901611e7c565b935050606086013567ffffffffffffffff8111156120a3576120a2611ac5565b5b6120af88828901611e7c565b925050608086013567ffffffffffffffff8111156120d0576120cf611ac5565b5b6120dc88828901611f31565b9150509295509295909350565b600067ffffffffffffffff82111561210457612103611d67565b5b602082029050602081019050919050565b6000612128612123846120e9565b611dc7565b9050808382526020820190506020840283018581111561214b5761214a611e0e565b5b835b8181101561217457806121608882611b13565b84526020840193505060208101905061214d565b5050509392505050565b600082601f83011261219357612192611d62565b5b81356121a3848260208601612115565b91505092915050565b600080604083850312156121c3576121c2611ac0565b5b600083013567ffffffffffffffff8111156121e1576121e0611ac5565b5b6121ed8582860161217e565b925050602083013567ffffffffffffffff81111561220e5761220d611ac5565b5b61221a85828601611e7c565b9150509250929050565b600081519050919050565b600082825260208201905092915050565b6000819050602082019050919050565b61225981611b28565b82525050565b600061226b8383612250565b60208301905092915050565b6000602082019050919050565b600061228f82612224565b612299818561222f565b93506122a483612240565b8060005b838110156122d55781516122bc888261225f565b97506122c783612277565b9250506001810190506122a8565b5085935050505092915050565b600060208201905081810360008301526122fc8184612284565b905092915050565b6000806000806080858703121561231e5761231d611ac0565b5b600061232c87828801611b13565b945050602061233d87828801611b49565b935050604061234e87828801611b49565b925050606085013567ffffffffffffffff81111561236f5761236e611ac5565b5b61237b87828801611f31565b91505092959194509250565b61239081611aea565b82525050565b60006020820190506123ab6000830184612387565b92915050565b6123ba81611c4d565b81146123c557600080fd5b50565b6000813590506123d7816123b1565b92915050565b600080604083850312156123f4576123f3611ac0565b5b600061240285828601611b13565b9250506020612413858286016123c8565b9150509250929050565b6000806040838503121561243457612433611ac0565b5b600061244285828601611b13565b925050602061245385828601611b13565b9150509250929050565b600080600080600060a0868803121561247957612478611ac0565b5b600061248788828901611b13565b955050602061249888828901611b13565b94505060406124a988828901611b49565b93505060606124ba88828901611b49565b925050608086013567ffffffffffffffff8111156124db576124da611ac5565b5b6124e788828901611f31565b9150509295509295909350565b60006020828403121561250a57612509611ac0565b5b600061251884828501611b13565b91505092915050565b7f455243313135353a2062616c616e636520717565727920666f7220746865207a60008201527f65726f2061646472657373000000000000000000000000000000000000000000602082015250565b600061257d602b83611cbb565b915061258882612521565b604082019050919050565b600060208201905081810360008301526125ac81612570565b9050919050565b7f4e487b7100000000000000000000000000000000000000000000000000000000600052602260045260246000fd5b600060028204905060018216806125fa57607f821691505b60208210810361260d5761260c6125b3565b5b50919050565b7f4f776e61626c653a2063616c6c6572206973206e6f7420746865206f776e6572600082015250565b6000612649602083611cbb565b915061265482612613565b602082019050919050565b600060208201905081810360008301526126788161263c565b9050919050565b7f455243313135353a207472616e736665722063616c6c6572206973206e6f742060008201527f6f776e6572206e6f7220617070726f7665640000000000000000000000000000602082015250565b60006126db603283611cbb565b91506126e68261267f565b604082019050919050565b6000602082019050818103600083015261270a816126ce565b9050919050565b7f455243313135353a206163636f756e747320616e6420696473206c656e67746860008201527f206d69736d617463680000000000000000000000000000000000000000000000602082015250565b600061276d602983611cbb565b915061277882612711565b604082019050919050565b6000602082019050818103600083015261279c81612760565b9050919050565b7f4e487b7100000000000000000000000000000000000000000000000000000000600052603260045260246000fd5b7f455243313135353a2063616c6c6572206973206e6f74206f776e6572206e6f7260008201527f20617070726f7665640000000000000000000000000000000000000000000000602082015250565b600061282e602983611cbb565b9150612839826127d2565b604082019050919050565b6000602082019050818103600083015261285d81612821565b9050919050565b7f4f776e61626c653a206e6577206f776e657220697320746865207a65726f206160008201527f6464726573730000000000000000000000000000000000000000000000000000602082015250565b60006128c0602683611cbb565b91506128cb82612864565b604082019050919050565b600060208201905081810360008301526128ef816128b3565b9050919050565b7f455243313135353a206d696e7420746f20746865207a65726f2061646472657360008201527f7300000000000000000000000000000000000000000000000000000000000000602082015250565b6000612952602183611cbb565b915061295d826128f6565b604082019050919050565b6000602082019050818103600083015261298181612945565b9050919050565b7f455243313135353a2069647320616e6420616d6f756e7473206c656e6774682060008201527f6d69736d61746368000000000000000000000000000000000000000000000000602082015250565b60006129e4602883611cbb565b91506129ef82612988565b604082019050919050565b60006020820190508181036000830152612a13816129d7565b9050919050565b7f4e487b7100000000000000000000000000000000000000000000000000000000600052601160045260246000fd5b6000612a5482611b28565b9150612a5f83611b28565b9250828201905080821115612a7757612a76612a1a565b5b92915050565b60006040820190508181036000830152612a978185612284565b90508181036020830152612aab8184612284565b90509392505050565b7f455243313135353a207472616e7366657220746f20746865207a65726f20616460008201527f6472657373000000000000000000000000000000000000000000000000000000602082015250565b6000612b10602583611cbb565b9150612b1b82612ab4565b604082019050919050565b60006020820190508181036000830152612b3f81612b03565b9050919050565b7f455243313135353a20696e73756666696369656e742062616c616e636520666f60008201527f72207472616e7366657200000000000000000000000000000000000000000000602082015250565b6000612ba2602a83611cbb565b9150612bad82612b46565b604082019050919050565b60006020820190508181036000830152612bd181612b95565b9050919050565b6000604082019050612bed6000830185611b9e565b612bfa6020830184611b9e565b9392505050565b7f455243313135353a2073657474696e6720617070726f76616c2073746174757360008201527f20666f722073656c660000000000000000000000000000000000000000000000602082015250565b6000612c5d602983611cbb565b9150612c6882612c01565b604082019050919050565b60006020820190508181036000830152612c8c81612c50565b9050919050565b600081519050919050565b600082825260208201905092915050565b6000612cba82612c93565b612cc48185612c9e565b9350612cd4818560208601611ccc565b612cdd81611cf6565b840191505092915050565b600060a082019050612cfd6000830188612387565b612d0a6020830187612387565b8181036040830152612d1c8186612284565b90508181036060830152612d308185612284565b90508181036080830152612d448184612caf565b90509695505050505050565b600081519050612d5f81611bf4565b92915050565b600060208284031215612d7b57612d7a611ac0565b5b6000612d8984828501612d50565b91505092915050565b60008160e01c9050919050565b600060033d1115612dbe5760046000803e612dbb600051612d92565b90505b90565b600060443d10612e4e57612dd3611ab6565b60043d036004823e80513d602482011167ffffffffffffffff82111715612dfb575050612e4e565b808201805167ffffffffffffffff811115612e195750505050612e4e565b80602083010160043d038501811115612e36575050505050612e4e565b612e4582602001850186611d96565b82955050505050505b90565b7f455243313135353a207472616e7366657220746f206e6f6e204552433131353560008201527f526563656976657220696d706c656d656e746572000000000000000000000000602082015250565b6000612ead603483611cbb565b9150612eb882612e51565b604082019050919050565b60006020820190508181036000830152612edc81612ea0565b9050919050565b7f455243313135353a204552433131353552656365697665722072656a6563746560008201527f6420746f6b656e73000000000000000000000000000000000000000000000000602082015250565b6000612f3f602883611cbb565b9150612f4a82612ee3565b604082019050919050565b60006020820190508181036000830152612f6e81612f32565b9050919050565b600060a082019050612f8a6000830188612387565b612f976020830187612387565b612fa46040830186611b9e565b612fb16060830185611b9e565b8181036080830152612fc38184612caf565b9050969550505050505056fea2646970667358221220b9c2c9e0b2d9160d277a20879d6bea5694a451ab93ab2e58bc91da1ff26b084564736f6c63430008180033",
  "linkReferences": {},
  "deployedLinkReferences": {}
}