{
  "_format": "hh-sol-artifact-1",
  "contractName": "Operaciones",
  "sourceName": "contracts/fase1/Operaciones.sol",
  "abi": [
    {
      "anonymous": false,
      "inputs": [
        {
          "indexed": false,
          "internalType": "string",
          "name": "nuevoDato",
          "type": "string"
        }
      ],
      "name": "DatoActualizado",
      "type": "event"
    },
    {
      "inputs": [
        {
          "internalType": "string",
          "name": "_nuevoDato",
          "type": "string"
        }
      ],
      "name": "actualizarDato",
      "outputs": [],
      "stateMutability": "nonpayable",
      "type": "function"
    },
    {
      "inputs": [],
      "name": "dato",
      "outputs": [
        {
          "internalType": "string",
          "name": "",
          "type": "string"
        }
      ],
      "stateMutability": "view",
      "type": "function"
    },
    {
      "inputs": [],
      "name": "obtenerDato",
      "outputs": [
        {
          "internalType": "string",
          "name": "",
          "type": "string"
        }
      ],
      "stateMutability": "view",
      "type": "function"
    }
  ],
  "bytecode": "0x608060405234801561001057600080fd5b5061040c806100206000396000f3fe608060405234801561001057600080fd5b50600436106100415760003560e01c806350e6624214610046578063cc8a582314610064578063e1df6fa114610079575b600080fd5b61004e610081565b60405161005b9190610332565b60405180910390f35b610077610072366004610288565b61010f565b005b61004e61015d565b6000805461008e90610385565b80601f01602080910402602001604051908101604052809291908181526020018280546100ba90610385565b80156101075780601f106100dc57610100808354040283529160200191610107565b820191906000526020600020905b8154815290600101906020018083116100ea57829003601f168201915b505050505081565b80516101229060009060208401906101ef565b507ff1b71200537dfea6514b4d182735874b7c48f7ece77e23809ac764fd2614d87b816040516101529190610332565b60405180910390a150565b60606000805461016c90610385565b80601f016020809104026020016040519081016040528092919081815260200182805461019890610385565b80156101e55780601f106101ba576101008083540402835291602001916101e5565b820191906000526020600020905b8154815290600101906020018083116101c857829003601f168201915b5050505050905090565b8280546101fb90610385565b90600052602060002090601f01602090048101928261021d5760008555610263565b82601f1061023657805160ff1916838001178555610263565b82800160010185558215610263579182015b82811115610263578251825591602001919060010190610248565b5061026f929150610273565b5090565b5b8082111561026f5760008155600101610274565b600060208284031215610299578081fd5b813567ffffffffffffffff808211156102b0578283fd5b818401915084601f8301126102c3578283fd5b8135818111156102d5576102d56103c0565b604051601f8201601f19908116603f011681019083821181831017156102fd576102fd6103c0565b81604052828152876020848701011115610315578586fd5b826020860160208301379182016020019490945295945050505050565b6000602080835283518082850152825b8181101561035e57858101830151858201604001528201610342565b8181111561036f5783604083870101525b50601f01601f1916929092016040019392505050565b60028104600182168061039957607f821691505b602082108114156103ba57634e487b7160e01b600052602260045260246000fd5b50919050565b634e487b7160e01b600052604160045260246000fdfea26469706673582212201665de444b1da9131480c24621778be6a893e086aca5dd90496a68ee5288e31264736f6c63430008010033",
  "linkReferences": {},
  "deployedLinkReferences": {}
}